{
  "contractName": "InvestmentAccount",
  "abi": [
    {
      "constant": true,
      "inputs": [
        {
          "name": "",
          "type": "string"
        }
      ],
      "name": "AssetPortfolio",
      "outputs": [
        {
          "name": "",
          "type": "uint256"
        }
      ],
      "payable": false,
      "stateMutability": "view",
      "type": "function"
    },
    {
      "constant": true,
      "inputs": [],
      "name": "AccountId",
      "outputs": [
        {
          "name": "",
          "type": "address"
        }
      ],
      "payable": false,
      "stateMutability": "view",
      "type": "function"
    },
    {
      "constant": true,
      "inputs": [],
      "name": "ManagerAddress",
      "outputs": [
        {
          "name": "",
          "type": "address"
        }
      ],
      "payable": false,
      "stateMutability": "view",
      "type": "function"
    },
    {
      "constant": true,
      "inputs": [],
      "name": "NetUserInvestedAmount",
      "outputs": [
        {
          "name": "",
          "type": "uint256"
        }
      ],
      "payable": false,
      "stateMutability": "view",
      "type": "function"
    },
    {
      "inputs": [],
      "payable": false,
      "stateMutability": "nonpayable",
      "type": "constructor"
    },
    {
      "payable": true,
      "stateMutability": "payable",
      "type": "fallback"
    },
    {
      "constant": false,
      "inputs": [
        {
          "name": "_shareName",
          "type": "string"
        },
        {
          "name": "_insertVal",
          "type": "uint256"
        }
      ],
      "name": "addToAssets",
      "outputs": [],
      "payable": true,
      "stateMutability": "payable",
      "type": "function"
    },
    {
      "constant": false,
      "inputs": [
        {
          "name": "_shareName",
          "type": "string"
        },
        {
          "name": "_deductVal",
          "type": "uint256"
        }
      ],
      "name": "deductFromAssets",
      "outputs": [],
      "payable": true,
      "stateMutability": "payable",
      "type": "function"
    },
    {
      "constant": false,
      "inputs": [
        {
          "name": "_shareName",
          "type": "string"
        },
        {
          "name": "_deductVal",
          "type": "uint256"
        },
        {
          "name": "amount",
          "type": "uint256"
        }
      ],
      "name": "sellAssets",
      "outputs": [],
      "payable": true,
      "stateMutability": "payable",
      "type": "function"
    },
    {
      "constant": true,
      "inputs": [
        {
          "name": "_shareName",
          "type": "string"
        }
      ],
      "name": "getNumberOfUnits",
      "outputs": [
        {
          "name": "",
          "type": "uint256"
        }
      ],
      "payable": false,
      "stateMutability": "view",
      "type": "function"
    },
    {
      "constant": true,
      "inputs": [],
      "name": "getContractBalance",
      "outputs": [
        {
          "name": "",
          "type": "uint256"
        }
      ],
      "payable": false,
      "stateMutability": "view",
      "type": "function"
    }
  ],
  "bytecode": "0x608060405234801561001057600080fd5b50336000806101000a81548173ffffffffffffffffffffffffffffffffffffffff021916908373ffffffffffffffffffffffffffffffffffffffff16021790555030600160006101000a81548173ffffffffffffffffffffffffffffffffffffffff021916908373ffffffffffffffffffffffffffffffffffffffff1602179055506000600281905550610bca806100a96000396000f3fe6080604052600436106100865760003560e01c8063797b2da511610059578063797b2da5146102c5578063811a67eb1461038a578063c8292d4414610466578063d50d57ab1461052b578063e09dd7341461058257610086565b8063030359971461009857806352ad1f0d146101745780636cf324ef146102435780636f9fb98a1461029a575b34600260008282540192505081905550005b3480156100a457600080fd5b5061015e600480360360208110156100bb57600080fd5b81019080803590602001906401000000008111156100d857600080fd5b8201836020820111156100ea57600080fd5b8035906020019184600183028401116401000000008311171561010c57600080fd5b91908080601f016020809104026020016040519081016040528093929190818152602001838380828437600081840152601f19601f8201169050808301925050505050505091929192905050506105ad565b6040518082815260200191505060405180910390f35b6102416004803603606081101561018a57600080fd5b81019080803590602001906401000000008111156101a757600080fd5b8201836020820111156101b957600080fd5b803590602001918460018302840111640100000000831117156101db57600080fd5b91908080601f016020809104026020016040519081016040528093929190818152602001838380828437600081840152601f19601f82011690508083019250505050505050919291929080359060200190929190803590602001909291905050506105db565b005b34801561024f57600080fd5b50610258610712565b604051808273ffffffffffffffffffffffffffffffffffffffff1673ffffffffffffffffffffffffffffffffffffffff16815260200191505060405180910390f35b3480156102a657600080fd5b506102af610738565b6040518082815260200191505060405180910390f35b610388600480360360408110156102db57600080fd5b81019080803590602001906401000000008111156102f857600080fd5b82018360208201111561030a57600080fd5b8035906020019184600183028401116401000000008311171561032c57600080fd5b91908080601f016020809104026020016040519081016040528093929190818152602001838380828437600081840152601f19601f82011690508083019250505050505050919291929080359060200190929190505050610757565b005b34801561039657600080fd5b50610450600480360360208110156103ad57600080fd5b81019080803590602001906401000000008111156103ca57600080fd5b8201836020820111156103dc57600080fd5b803590602001918460018302840111640100000000831117156103fe57600080fd5b91908080601f016020809104026020016040519081016040528093929190818152602001838380828437600081840152601f19601f820116905080830192505050505050509192919290505050610923565b6040518082815260200191505060405180910390f35b6105296004803603604081101561047c57600080fd5b810190808035906020019064010000000081111561049957600080fd5b8201836020820111156104ab57600080fd5b803590602001918460018302840111640100000000831117156104cd57600080fd5b91908080601f016020809104026020016040519081016040528093929190818152602001838380828437600081840152601f19601f82011690508083019250505050505050919291929080359060200190929190505050610a7b565b005b34801561053757600080fd5b50610540610b6a565b604051808273ffffffffffffffffffffffffffffffffffffffff1673ffffffffffffffffffffffffffffffffffffffff16815260200191505060405180910390f35b34801561058e57600080fd5b50610597610b8f565b6040518082815260200191505060405180910390f35b6003818051602081018201805184825260208301602085012081835280955050505050506000915090505481565b600082106106c65760006003846040518082805190602001908083835b6020831061061b57805182526020820191506020810190506020830392506105f8565b6001836020036101000a03801982511681845116808217855250505050505090500191505090815260200160405180910390205490508281039050806003856040518082805190602001908083835b6020831061068d578051825260208201915060208101905060208303925061066a565b6001836020036101000a038019825116818451168082178552505050505050905001915050908152602001604051809103902081905550505b3373ffffffffffffffffffffffffffffffffffffffff166108fc829081150290604051600060405180830381858888f1935050505015801561070c573d6000803e3d6000fd5b50505050565b600160009054906101000a900473ffffffffffffffffffffffffffffffffffffffff1681565b60003073ffffffffffffffffffffffffffffffffffffffff1631905090565b60006003836040518082805190602001908083835b6020831061078f578051825260208201915060208101905060208303925061076c565b6001836020036101000a038019825116818451168082178552505050505050905001915050908152602001604051809103902054141561083c57806003836040518082805190602001908083835b6020831061080057805182526020820191506020810190506020830392506107dd565b6001836020036101000a03801982511681845116808217855250505050505090500191505090815260200160405180910390208190555061091f565b60006003836040518082805190602001908083835b602083106108745780518252602082019150602081019050602083039250610851565b6001836020036101000a03801982511681845116808217855250505050505090500191505090815260200160405180910390205490508181019050806003846040518082805190602001908083835b602083106108e657805182526020820191506020810190506020830392506108c3565b6001836020036101000a038019825116818451168082178552505050505050905001915050908152602001604051809103902081905550505b5050565b60008060009054906101000a900473ffffffffffffffffffffffffffffffffffffffff166000809054906101000a900473ffffffffffffffffffffffffffffffffffffffff1673ffffffffffffffffffffffffffffffffffffffff163373ffffffffffffffffffffffffffffffffffffffff1614610a09576040517f08c379a00000000000000000000000000000000000000000000000000000000081526004018080602001828103825260168152602001807f496e76616c69642041757468656e7469636174696f6e0000000000000000000081525060200191505060405180910390fd5b6003836040518082805190602001908083835b60208310610a3f5780518252602082019150602081019050602083039250610a1c565b6001836020036101000a038019825116818451168082178552505050505050905001915050908152602001604051809103902054915050919050565b60008110610b665760006003836040518082805190602001908083835b60208310610abb5780518252602082019150602081019050602083039250610a98565b6001836020036101000a03801982511681845116808217855250505050505090500191505090815260200160405180910390205490508181039050806003846040518082805190602001908083835b60208310610b2d5780518252602082019150602081019050602083039250610b0a565b6001836020036101000a038019825116818451168082178552505050505050905001915050908152602001604051809103902081905550505b5050565b6000809054906101000a900473ffffffffffffffffffffffffffffffffffffffff1681565b6002548156fea265627a7a7230582028732d61db9aab35a8a9c97a898e808f2687356f6da64e09538d5102424b1ae464736f6c634300050a0032",
  "source": "pragma solidity ^0.5.0;\r\n\r\ncontract InvestmentAccount{\r\n    address payable public ManagerAddress;\r\n    address payable public AccountId;\r\n    uint256 public NetUserInvestedAmount;\r\n\r\n    mapping (string => uint) public AssetPortfolio;\r\n\r\n    constructor() public{\r\n        ManagerAddress = msg.sender;\r\n        AccountId = address(this);\r\n        NetUserInvestedAmount = 0;\r\n    }\r\n\r\n\r\n    modifier onlyManager(address){\r\n            require(msg.sender == ManagerAddress, \"Invalid Authentication\");\r\n        _;\r\n    }\r\n\r\n    function addToAssets(string memory _shareName, uint _insertVal) public payable{\r\n        if(AssetPortfolio[_shareName] == 0){\r\n            AssetPortfolio[_shareName] = _insertVal;\r\n        }\r\n        else {\r\n            uint temp = AssetPortfolio[_shareName];\r\n            temp = temp + _insertVal;\r\n            AssetPortfolio[_shareName] = temp;\r\n        }\r\n    }\r\n\r\n    function deductFromAssets(string memory _shareName, uint _deductVal) public payable{\r\n        if (_deductVal >= 0){\r\n            uint temp = AssetPortfolio[_shareName];\r\n            temp = temp - _deductVal;\r\n            AssetPortfolio[_shareName] = temp;\r\n        }\r\n    }\r\n\r\n    function sellAssets(string memory _shareName, uint _deductVal, uint256 amount) public payable{\r\n        if (_deductVal >= 0){\r\n            uint temp = AssetPortfolio[_shareName];\r\n            temp = temp - _deductVal;\r\n            AssetPortfolio[_shareName] = temp;\r\n        }\r\n        msg.sender.transfer(amount);\r\n    }\r\n\r\n    function getNumberOfUnits(string memory _shareName) public view onlyManager(ManagerAddress) returns (uint){\r\n       return  AssetPortfolio[_shareName];\r\n    }\r\n\r\n    function getContractBalance() public view returns (uint256){\r\n        return address(this).balance;\r\n    }\r\n\r\n    function() external payable{\r\n        NetUserInvestedAmount += msg.value;\r\n    }\r\n}",
  "sourcePath": "C:\\Users\\abhig\\Documents\\SIT764\\AssetManagement\\unisuper-blockchain-poc\\contracts\\InvestmentAccount.sol",
  "compiler": {
    "name": "solc",
    "version": "0.5.10+commit.5a6ea5b1.Emscripten.clang"
  },
  "schemaVersion": "3.0.22",
  "updatedAt": "2020-02-02T12:54:12.785Z",
  "devdoc": {
    "methods": {}
  },
  "userdoc": {
    "methods": {}
  }
}