{
  "contractName": "Manager",
  "abi": [
    {
      "constant": false,
      "inputs": [],
      "name": "createInvestmentAccount",
      "outputs": [],
      "payable": true,
      "stateMutability": "payable",
      "type": "function"
    },
    {
      "constant": false,
      "inputs": [
        {
          "name": "_shareName",
          "type": "string"
        }
      ],
      "name": "query",
      "outputs": [
        {
          "name": "",
          "type": "uint256"
        }
      ],
      "payable": true,
      "stateMutability": "payable",
      "type": "function"
    },
    {
      "constant": false,
      "inputs": [
        {
          "name": "_debitVal",
          "type": "uint256"
        },
        {
          "name": "_shareName",
          "type": "string"
        },
        {
          "name": "amount",
          "type": "uint256"
        }
      ],
      "name": "sellAssests",
      "outputs": [],
      "payable": true,
      "stateMutability": "payable",
      "type": "function"
    },
    {
      "constant": false,
      "inputs": [
        {
          "name": "_creditVal",
          "type": "uint256"
        },
        {
          "name": "_shareName",
          "type": "string"
        }
      ],
      "name": "buyAssets",
      "outputs": [],
      "payable": true,
      "stateMutability": "payable",
      "type": "function"
    },
    {
      "constant": true,
      "inputs": [
        {
          "name": "_shareName",
          "type": "string"
        }
      ],
      "name": "getNumberOfUnits",
      "outputs": [
        {
          "name": "",
          "type": "uint256"
        }
      ],
      "payable": false,
      "stateMutability": "view",
      "type": "function"
    },
    {
      "constant": true,
      "inputs": [],
      "name": "getContractBalance",
      "outputs": [
        {
          "name": "",
          "type": "uint256"
        }
      ],
      "payable": false,
      "stateMutability": "view",
      "type": "function"
    },
    {
      "constant": true,
      "inputs": [],
      "name": "getConAddressOfInvestmentAccount",
      "outputs": [
        {
          "name": "",
          "type": "address[]"
        }
      ],
      "payable": false,
      "stateMutability": "view",
      "type": "function"
    }
  ],
  "bytecode": "0x608060405234801561001057600080fd5b50611a61806100206000396000f3fe6080604052600436106100705760003560e01c80637c2619291161004e5780637c26192914610116578063811a67eb146101e5578063eb290911146102c1578063f73378c01461038657610070565b8063170ff1141461007557806346269e7e1461007f5780636f9fb98a146100eb575b600080fd5b61007d610455565b005b34801561008b57600080fd5b506100946105e6565b6040518080602001828103825283818151815260200191508051906020019060200280838360005b838110156100d75780820151818401526020810190506100bc565b505050509050019250505060405180910390f35b3480156100f757600080fd5b50610100610674565b6040518082815260200191505060405180910390f35b6101cf6004803603602081101561012c57600080fd5b810190808035906020019064010000000081111561014957600080fd5b82018360208201111561015b57600080fd5b8035906020019184600183028401116401000000008311171561017d57600080fd5b91908080601f016020809104026020016040519081016040528093929190818152602001838380828437600081840152601f19601f820116905080830192505050505050509192919290505050610693565b6040518082815260200191505060405180910390f35b3480156101f157600080fd5b506102ab6004803603602081101561020857600080fd5b810190808035906020019064010000000081111561022557600080fd5b82018360208201111561023757600080fd5b8035906020019184600183028401116401000000008311171561025957600080fd5b91908080601f016020809104026020016040519081016040528093929190818152602001838380828437600081840152601f19601f8201169050808301925050505050505091929192905050506106d9565b6040518082815260200191505060405180910390f35b610384600480360360408110156102d757600080fd5b8101908080359060200190929190803590602001906401000000008111156102fe57600080fd5b82018360208201111561031057600080fd5b8035906020019184600183028401116401000000008311171561033257600080fd5b91908080601f016020809104026020016040519081016040528093929190818152602001838380828437600081840152601f19601f820116905080830192505050505050509192919290505050610831565b005b6104536004803603606081101561039c57600080fd5b8101908080359060200190929190803590602001906401000000008111156103c357600080fd5b8201836020820111156103d557600080fd5b803590602001918460018302840111640100000000831117156103f757600080fd5b91908080601f016020809104026020016040519081016040528093929190818152602001838380828437600081840152601f19601f8201169050808301925050505050505091929192908035906020019092919050505061096c565b005b600060405161046390610dac565b604051809103906000f08015801561047f573d6000803e3d6000fd5b509050806000803373ffffffffffffffffffffffffffffffffffffffff1673ffffffffffffffffffffffffffffffffffffffff16815260200190815260200160002060006101000a81548173ffffffffffffffffffffffffffffffffffffffff021916908373ffffffffffffffffffffffffffffffffffffffff16021790555060028190806001815401808255809150509060018203906000526020600020016000909192909190916101000a81548173ffffffffffffffffffffffffffffffffffffffff021916908373ffffffffffffffffffffffffffffffffffffffff1602179055505080600160003373ffffffffffffffffffffffffffffffffffffffff1673ffffffffffffffffffffffffffffffffffffffff16815260200190815260200160002060006101000a81548173ffffffffffffffffffffffffffffffffffffffff021916908373ffffffffffffffffffffffffffffffffffffffff16021790555050565b6060600280548060200260200160405190810160405280929190818152602001828054801561066a57602002820191906000526020600020905b8160009054906101000a900473ffffffffffffffffffffffffffffffffffffffff1673ffffffffffffffffffffffffffffffffffffffff1681526020019060010190808311610620575b5050505050905090565b60003073ffffffffffffffffffffffffffffffffffffffff1631905090565b60006106d28273a24df0420de1f3b8d740a52aaeb9d55d6d64478e73ffffffffffffffffffffffffffffffffffffffff16610aee90919063ffffffff16565b9050919050565b60008060003373ffffffffffffffffffffffffffffffffffffffff1673ffffffffffffffffffffffffffffffffffffffff16815260200190815260200160002060009054906101000a900473ffffffffffffffffffffffffffffffffffffffff1673ffffffffffffffffffffffffffffffffffffffff1663811a67eb836040518263ffffffff1660e01b81526004018080602001828103825283818151815260200191508051906020019080838360005b838110156107a557808201518184015260208101905061078a565b50505050905090810190601f1680156107d25780820380516001836020036101000a031916815260200191505b509250505060206040518083038186803b1580156107ef57600080fd5b505afa158015610803573d6000803e3d6000fd5b505050506040513d602081101561081957600080fd5b81019080805190602001909291905050509050919050565b6000803373ffffffffffffffffffffffffffffffffffffffff1673ffffffffffffffffffffffffffffffffffffffff16815260200190815260200160002060009054906101000a900473ffffffffffffffffffffffffffffffffffffffff1673ffffffffffffffffffffffffffffffffffffffff1663797b2da53483856040518463ffffffff1660e01b81526004018080602001838152602001828103825284818151815260200191508051906020019080838360005b838110156109035780820151818401526020810190506108e8565b50505050905090810190601f1680156109305780820380516001836020036101000a031916815260200191505b5093505050506000604051808303818588803b15801561094f57600080fd5b505af1158015610963573d6000803e3d6000fd5b50505050505050565b6000803373ffffffffffffffffffffffffffffffffffffffff1673ffffffffffffffffffffffffffffffffffffffff16815260200190815260200160002060009054906101000a900473ffffffffffffffffffffffffffffffffffffffff1673ffffffffffffffffffffffffffffffffffffffff1663c8292d4483856040518363ffffffff1660e01b81526004018080602001838152602001828103825284818151815260200191508051906020019080838360005b83811015610a3d578082015181840152602081019050610a22565b50505050905090810190601f168015610a6a5780820380516001836020036101000a031916815260200191505b509350505050600060405180830381600087803b158015610a8a57600080fd5b505af1158015610a9e573d6000803e3d6000fd5b505050503373ffffffffffffffffffffffffffffffffffffffff166108fc829081150290604051600060405180830381858888f19350505050158015610ae8573d6000803e3d6000fd5b50505050565b60008060008473ffffffffffffffffffffffffffffffffffffffff1663ed815d838673ffffffffffffffffffffffffffffffffffffffff1663b0667cf86040518163ffffffff1660e01b815260040160206040518083038186803b158015610b5557600080fd5b505afa158015610b69573d6000803e3d6000fd5b505050506040513d6020811015610b7f57600080fd5b81019080805190602001909291905050508660405160200180807f53504f5450582f0000000000000000000000000000000000000000000000000081525060070182805190602001908083835b60208310610bef5780518252602082019150602081019050602083039250610bcc565b6001836020036101000a0380198251168184511680821785525050505050509050019150506040516020818303038152906040526040518363ffffffff1660e01b81526004018080602001828103825283818151815260200191508051906020019080838360005b83811015610c72578082015181840152602081019050610c57565b50505050905090810190601f168015610c9f5780820380516001836020036101000a031916815260200191505b50925050506060604051808303818588803b158015610cbd57600080fd5b505af1158015610cd1573d6000803e3d6000fd5b50505050506040513d6060811015610ce857600080fd5b81019080805190602001909291908051906020019092919080519060200190929190505050925050915060016003811115610d1f57fe5b816003811115610d2b57fe5b14610d9e576040517f08c379a00000000000000000000000000000000000000000000000000000000081526004018080602001828103825260108152602001807f444154415f554e415641494c41424c450000000000000000000000000000000081525060200191505060405180910390fd5b8160001c9250505092915050565b610c7380610dba8339019056fe608060405234801561001057600080fd5b50336000806101000a81548173ffffffffffffffffffffffffffffffffffffffff021916908373ffffffffffffffffffffffffffffffffffffffff16021790555030600160006101000a81548173ffffffffffffffffffffffffffffffffffffffff021916908373ffffffffffffffffffffffffffffffffffffffff1602179055506000600281905550610bca806100a96000396000f3fe6080604052600436106100865760003560e01c8063797b2da511610059578063797b2da5146102c5578063811a67eb1461038a578063c8292d4414610466578063d50d57ab1461052b578063e09dd7341461058257610086565b8063030359971461009857806352ad1f0d146101745780636cf324ef146102435780636f9fb98a1461029a575b34600260008282540192505081905550005b3480156100a457600080fd5b5061015e600480360360208110156100bb57600080fd5b81019080803590602001906401000000008111156100d857600080fd5b8201836020820111156100ea57600080fd5b8035906020019184600183028401116401000000008311171561010c57600080fd5b91908080601f016020809104026020016040519081016040528093929190818152602001838380828437600081840152601f19601f8201169050808301925050505050505091929192905050506105ad565b6040518082815260200191505060405180910390f35b6102416004803603606081101561018a57600080fd5b81019080803590602001906401000000008111156101a757600080fd5b8201836020820111156101b957600080fd5b803590602001918460018302840111640100000000831117156101db57600080fd5b91908080601f016020809104026020016040519081016040528093929190818152602001838380828437600081840152601f19601f82011690508083019250505050505050919291929080359060200190929190803590602001909291905050506105db565b005b34801561024f57600080fd5b50610258610712565b604051808273ffffffffffffffffffffffffffffffffffffffff1673ffffffffffffffffffffffffffffffffffffffff16815260200191505060405180910390f35b3480156102a657600080fd5b506102af610738565b6040518082815260200191505060405180910390f35b610388600480360360408110156102db57600080fd5b81019080803590602001906401000000008111156102f857600080fd5b82018360208201111561030a57600080fd5b8035906020019184600183028401116401000000008311171561032c57600080fd5b91908080601f016020809104026020016040519081016040528093929190818152602001838380828437600081840152601f19601f82011690508083019250505050505050919291929080359060200190929190505050610757565b005b34801561039657600080fd5b50610450600480360360208110156103ad57600080fd5b81019080803590602001906401000000008111156103ca57600080fd5b8201836020820111156103dc57600080fd5b803590602001918460018302840111640100000000831117156103fe57600080fd5b91908080601f016020809104026020016040519081016040528093929190818152602001838380828437600081840152601f19601f820116905080830192505050505050509192919290505050610923565b6040518082815260200191505060405180910390f35b6105296004803603604081101561047c57600080fd5b810190808035906020019064010000000081111561049957600080fd5b8201836020820111156104ab57600080fd5b803590602001918460018302840111640100000000831117156104cd57600080fd5b91908080601f016020809104026020016040519081016040528093929190818152602001838380828437600081840152601f19601f82011690508083019250505050505050919291929080359060200190929190505050610a7b565b005b34801561053757600080fd5b50610540610b6a565b604051808273ffffffffffffffffffffffffffffffffffffffff1673ffffffffffffffffffffffffffffffffffffffff16815260200191505060405180910390f35b34801561058e57600080fd5b50610597610b8f565b6040518082815260200191505060405180910390f35b6003818051602081018201805184825260208301602085012081835280955050505050506000915090505481565b600082106106c65760006003846040518082805190602001908083835b6020831061061b57805182526020820191506020810190506020830392506105f8565b6001836020036101000a03801982511681845116808217855250505050505090500191505090815260200160405180910390205490508281039050806003856040518082805190602001908083835b6020831061068d578051825260208201915060208101905060208303925061066a565b6001836020036101000a038019825116818451168082178552505050505050905001915050908152602001604051809103902081905550505b3373ffffffffffffffffffffffffffffffffffffffff166108fc829081150290604051600060405180830381858888f1935050505015801561070c573d6000803e3d6000fd5b50505050565b600160009054906101000a900473ffffffffffffffffffffffffffffffffffffffff1681565b60003073ffffffffffffffffffffffffffffffffffffffff1631905090565b60006003836040518082805190602001908083835b6020831061078f578051825260208201915060208101905060208303925061076c565b6001836020036101000a038019825116818451168082178552505050505050905001915050908152602001604051809103902054141561083c57806003836040518082805190602001908083835b6020831061080057805182526020820191506020810190506020830392506107dd565b6001836020036101000a03801982511681845116808217855250505050505090500191505090815260200160405180910390208190555061091f565b60006003836040518082805190602001908083835b602083106108745780518252602082019150602081019050602083039250610851565b6001836020036101000a03801982511681845116808217855250505050505090500191505090815260200160405180910390205490508181019050806003846040518082805190602001908083835b602083106108e657805182526020820191506020810190506020830392506108c3565b6001836020036101000a038019825116818451168082178552505050505050905001915050908152602001604051809103902081905550505b5050565b60008060009054906101000a900473ffffffffffffffffffffffffffffffffffffffff166000809054906101000a900473ffffffffffffffffffffffffffffffffffffffff1673ffffffffffffffffffffffffffffffffffffffff163373ffffffffffffffffffffffffffffffffffffffff1614610a09576040517f08c379a00000000000000000000000000000000000000000000000000000000081526004018080602001828103825260168152602001807f496e76616c69642041757468656e7469636174696f6e0000000000000000000081525060200191505060405180910390fd5b6003836040518082805190602001908083835b60208310610a3f5780518252602082019150602081019050602083039250610a1c565b6001836020036101000a038019825116818451168082178552505050505050905001915050908152602001604051809103902054915050919050565b60008110610b665760006003836040518082805190602001908083835b60208310610abb5780518252602082019150602081019050602083039250610a98565b6001836020036101000a03801982511681845116808217855250505050505090500191505090815260200160405180910390205490508181039050806003846040518082805190602001908083835b60208310610b2d5780518252602082019150602081019050602083039250610b0a565b6001836020036101000a038019825116818451168082178552505050505050905001915050908152602001604051809103902081905550505b5050565b6000809054906101000a900473ffffffffffffffffffffffffffffffffffffffff1681565b6002548156fea265627a7a7230582028732d61db9aab35a8a9c97a898e808f2687356f6da64e09538d5102424b1ae464736f6c634300050a0032a265627a7a72305820686f2110dd387c9742bbb47a34b1ea5bfa90763eb124a64ec5a03f1534237c3664736f6c634300050a0032",
  "source": "pragma solidity ^0.5.0;\r\nimport './helpers/SafeMath.sol';\r\nimport './InvestmentAccount.sol';\r\nimport {usingBandProtocol, Oracle} from 'band-solidity/contracts/Band.sol';\r\n\r\ncontract Manager is usingBandProtocol{\r\n    using SafeMath for *;\r\n\r\n     mapping  (address => InvestmentAccount) InvestmentAccounts;\r\n    mapping (address => address) SenderToContractAddressMap;\r\n    InvestmentAccount[] arrayOfAccounts;\r\n\r\n    function createInvestmentAccount() public payable{\r\n        InvestmentAccount InvestmentAccountContract = new InvestmentAccount();\r\n        // address payable UserAccount = address(InvestmentAccountContract);\r\n        InvestmentAccounts[msg.sender] = InvestmentAccountContract;\r\n        arrayOfAccounts.push(InvestmentAccountContract);\r\n        SenderToContractAddressMap[msg.sender] = address(InvestmentAccountContract);\r\n    }\r\n\r\n    function query(string memory _shareName) public payable returns(uint256){\r\n        return FINANCIAL.querySpotPrice(_shareName);\r\n    }\r\n\r\n    function sellAssests(uint _debitVal, string memory _shareName, uint256 amount) public payable {\r\n        InvestmentAccounts[msg.sender].deductFromAssets(_shareName,_debitVal);\r\n        msg.sender.transfer(amount);\r\n    }\r\n\r\n    function buyAssets(uint _creditVal, string memory _shareName) public payable {\r\n        InvestmentAccounts[msg.sender].addToAssets.value(msg.value)(_shareName,_creditVal);\r\n    }\r\n\r\n    function getNumberOfUnits(string memory _shareName) public view returns (uint){\r\n        return  InvestmentAccounts[msg.sender].getNumberOfUnits(_shareName);\r\n    }\r\n\r\n    function getContractBalance() public view returns (uint256){\r\n        return address(this).balance;\r\n    }\r\n\r\n    function getConAddressOfInvestmentAccount() public view returns (InvestmentAccount[] memory){\r\n        //return address(InvestmentAccounts[msg.sender]);\r\n        return arrayOfAccounts;\r\n        //SenderToContractAddressMap\r\n    }\r\n}",
  "sourcePath": "C:/Users/abhig/Documents/SIT764/AssetManagement/unisuper-blockchain-poc/contracts/Manager.sol",
  "compiler": {
    "name": "solc",
    "version": "0.5.10+commit.5a6ea5b1.Emscripten.clang"
  },
  "schemaVersion": "3.0.22",
  "updatedAt": "2020-02-02T23:20:22.389Z",
  "devdoc": {
    "methods": {}
  },
  "userdoc": {
    "methods": {}
  }
}